{
  "transactions": [
    {
      "hash": "0xfeca2b4f152dcbb549b45390baabc07553ee6caaa3e82a9db6dff54ef6ba6e28",
      "transactionType": "CALL",
      "contractName": null,
      "contractAddress": "0x18db1d6e9ccccb54c739f2017f81ae014a8d1059",
      "function": "setExecutablePositionsLimit(uint256)",
      "arguments": [
        "75"
      ],
      "transaction": {
        "from": "0xe911f518449ba0011d84b047b4cde50daa081ec1",
        "to": "0x18db1d6e9ccccb54c739f2017f81ae014a8d1059",
        "value": "0x0",
        "input": "0xb2485494000000000000000000000000000000000000000000000000000000000000004b",
        "nonce": "0x31",
        "chainId": "0x2105"
      },
      "additionalContracts": [],
      "isFixedGasLimit": false
    },
    {
      "hash": "0x3f1ff07510256d8e142385077ed908c015d76995dbaccebd5c61a0e91861de85",
      "transactionType": "CALL",
      "contractName": null,
      "contractAddress": "0x18db1d6e9ccccb54c739f2017f81ae014a8d1059",
      "function": "setHook(address)",
      "arguments": [
        "0x340185a3F276D9bCC0BF9e9c5322b1C1571940c0"
      ],
      "transaction": {
        "from": "0xe911f518449ba0011d84b047b4cde50daa081ec1",
        "to": "0x18db1d6e9ccccb54c739f2017f81ae014a8d1059",
        "value": "0x0",
        "input": "0x3dfd3873000000000000000000000000340185a3f276d9bcc0bf9e9c5322b1c1571940c0",
        "nonce": "0x32",
        "chainId": "0x2105"
      },
      "additionalContracts": [],
      "isFixedGasLimit": false
    },
    {
      "hash": "0x82292f270229531c88db6b60ca7ebe6b763db0aa6c1dcb2bb51043a7d7d98e62",
      "transactionType": "CALL",
      "contractName": null,
      "contractAddress": "0x498581ff718922c3f8e6a244956af099b2652b2b",
      "function": "initialize((address,address,uint24,int24,address),uint160)",
      "arguments": [
        "(0x0000000000000000000000000000000000000000, 0x833589fCD6eDb6E08f4c7C32D4f71b54bdA02913, 8388608, 20, 0x340185a3F276D9bCC0BF9e9c5322b1C1571940c0)",
        "3146085161082390200111895"
      ],
      "transaction": {
        "from": "0xe911f518449ba0011d84b047b4cde50daa081ec1",
        "to": "0x498581ff718922c3f8e6a244956af099b2652b2b",
        "value": "0x0",
        "input": "0x6276cbbe0000000000000000000000000000000000000000000000000000000000000000000000000000000000000000833589fcd6edb6e08f4c7c32d4f71b54bda0291300000000000000000000000000000000000000000000000000000000008000000000000000000000000000000000000000000000000000000000000000000014000000000000000000000000340185a3f276d9bcc0bf9e9c5322b1c1571940c0000000000000000000000000000000000000000000029a359e4a72dd05e6d317",
        "nonce": "0x33",
        "chainId": "0x2105"
      },
      "additionalContracts": [],
      "isFixedGasLimit": false
    },
    {
      "hash": "0x151c694f56dda8ddbb3fdc4ef9574703d25f49bda380db1242e5709b0f4e865c",
      "transactionType": "CALL",
      "contractName": null,
      "contractAddress": "0x18db1d6e9ccccb54c739f2017f81ae014a8d1059",
      "function": "setWhitelistedPool(bytes32,bool)",
      "arguments": [
        "0x8a2c578dd4ed6486daeadb8bb99cdff9c09a4b8ce91b5d5140f5d0065ae10a42",
        "true"
      ],
      "transaction": {
        "from": "0xe911f518449ba0011d84b047b4cde50daa081ec1",
        "to": "0x18db1d6e9ccccb54c739f2017f81ae014a8d1059",
        "value": "0x0",
        "input": "0x6a90700b8a2c578dd4ed6486daeadb8bb99cdff9c09a4b8ce91b5d5140f5d0065ae10a420000000000000000000000000000000000000000000000000000000000000001",
        "nonce": "0x34",
        "chainId": "0x2105"
      },
      "additionalContracts": [],
      "isFixedGasLimit": false
    },
    {
      "hash": "0x92d95b8a58c24b4fde387137d4b8b2c5e928c27418d77ce2c8df0bf81e044b01",
      "transactionType": "CALL",
      "contractName": null,
      "contractAddress": "0x340185a3f276d9bcc0bf9e9c5322b1c1571940c0",
      "function": "updateDynamicLPFee((address,address,uint24,int24,address),uint24)",
      "arguments": [
        "(0x0000000000000000000000000000000000000000, 0x833589fCD6eDb6E08f4c7C32D4f71b54bdA02913, 8388608, 20, 0x340185a3F276D9bCC0BF9e9c5322b1C1571940c0)",
        "400"
      ],
      "transaction": {
        "from": "0xe911f518449ba0011d84b047b4cde50daa081ec1",
        "to": "0x340185a3f276d9bcc0bf9e9c5322b1c1571940c0",
        "value": "0x0",
        "input": "0x527596510000000000000000000000000000000000000000000000000000000000000000000000000000000000000000833589fcd6edb6e08f4c7c32d4f71b54bda0291300000000000000000000000000000000000000000000000000000000008000000000000000000000000000000000000000000000000000000000000000000014000000000000000000000000340185a3f276d9bcc0bf9e9c5322b1c1571940c00000000000000000000000000000000000000000000000000000000000000190",
        "nonce": "0x35",
        "chainId": "0x2105"
      },
      "additionalContracts": [],
      "isFixedGasLimit": false
    },
    {
      "hash": "0xa571f52a36845e34a1c0b45968d0bb759da2284140c8438e5ad737e4bdd209ff",
      "transactionType": "CALL",
      "contractName": null,
      "contractAddress": "0x628a822ec5acc74b01d5770dd8a9624f0d529ff2",
      "function": "addPoolId(bytes32,(address,address,uint24,int24,address))",
      "arguments": [
        "0x8a2c578dd4ed6486daeadb8bb99cdff9c09a4b8ce91b5d5140f5d0065ae10a42",
        "(0x0000000000000000000000000000000000000000, 0x833589fCD6eDb6E08f4c7C32D4f71b54bdA02913, 8388608, 20, 0x340185a3F276D9bCC0BF9e9c5322b1C1571940c0)"
      ],
      "transaction": {
        "from": "0xe911f518449ba0011d84b047b4cde50daa081ec1",
        "to": "0x628a822ec5acc74b01d5770dd8a9624f0d529ff2",
        "value": "0x0",
        "input": "0xd6b25f0b8a2c578dd4ed6486daeadb8bb99cdff9c09a4b8ce91b5d5140f5d0065ae10a420000000000000000000000000000000000000000000000000000000000000000000000000000000000000000833589fcd6edb6e08f4c7c32d4f71b54bda0291300000000000000000000000000000000000000000000000000000000008000000000000000000000000000000000000000000000000000000000000000000014000000000000000000000000340185a3f276d9bcc0bf9e9c5322b1c1571940c0",
        "nonce": "0x36",
        "chainId": "0x2105"
      },
      "additionalContracts": [],
      "isFixedGasLimit": false
    }
  ],
  "receipts": [
    {
      "status": "0x1",
      "cumulativeGasUsed": "0x1e03db8",
      "logs": [],
      "logsBloom": "0x00000000000000000000000000000000000000000000000000000000000000000000000000000000000000000000000000000000000000000000000000000000000000000000000000000000000000000000000000000000000000000000000000000000000000000000000000000000000000000000000000000000000000000000000000000000000000000000000000000000000000000000000000000000000000000000000000000000000000000000000000000000000000000000000000000000000000000000000000000000000000000000000000000000000000000000000000000000000000000000000000000000000000000000000000000000",
      "type": "0x0",
      "transactionHash": "0xfeca2b4f152dcbb549b45390baabc07553ee6caaa3e82a9db6dff54ef6ba6e28",
      "transactionIndex": "0x65",
      "blockHash": "0x28b0e2125de5c1c1f0de0ca1bda6c1495f555f176b618719476d4886070c21a3",
      "blockNumber": "0x1be3808",
      "gasUsed": "0x6516",
      "effectiveGasPrice": "0x1d28eb",
      "from": "0xe911f518449ba0011d84b047b4cde50daa081ec1",
      "to": "0x18db1d6e9ccccb54c739f2017f81ae014a8d1059",
      "contractAddress": null,
      "l1BaseFeeScalar": "0x8dd",
      "l1BlobBaseFee": "0x1",
      "l1BlobBaseFeeScalar": "0x101c12",
      "l1Fee": "0x4b8d8104",
      "l1GasPrice": "0x14cfa687",
      "l1GasUsed": "0x640"
    },
    {
      "status": "0x1",
      "cumulativeGasUsed": "0x13631a4",
      "logs": [],
      "logsBloom": "0x00000000000000000000000000000000000000000000000000000000000000000000000000000000000000000000000000000000000000000000000000000000000000000000000000000000000000000000000000000000000000000000000000000000000000000000000000000000000000000000000000000000000000000000000000000000000000000000000000000000000000000000000000000000000000000000000000000000000000000000000000000000000000000000000000000000000000000000000000000000000000000000000000000000000000000000000000000000000000000000000000000000000000000000000000000000",
      "type": "0x0",
      "transactionHash": "0x3f1ff07510256d8e142385077ed908c015d76995dbaccebd5c61a0e91861de85",
      "transactionIndex": "0x53",
      "blockHash": "0x9dc406b6dd236dd7732556897d7edc25f939e6991e63febfc5cf749807f1becf",
      "blockNumber": "0x1be380a",
      "gasUsed": "0xb456",
      "effectiveGasPrice": "0x1d28eb",
      "from": "0xe911f518449ba0011d84b047b4cde50daa081ec1",
      "to": "0x18db1d6e9ccccb54c739f2017f81ae014a8d1059",
      "contractAddress": null,
      "l1BaseFeeScalar": "0x8dd",
      "l1BlobBaseFee": "0x1",
      "l1BlobBaseFeeScalar": "0x101c12",
      "l1Fee": "0x4b8d8104",
      "l1GasPrice": "0x14cfa687",
      "l1GasUsed": "0x640"
    },
    {
      "status": "0x1",
      "cumulativeGasUsed": "0x1447565",
      "logs": [
        {
          "address": "0x498581ff718922c3f8e6a244956af099b2652b2b",
          "topics": [
            "0xdd466e674ea557f56295e2d0218a125ea4b4f0f6f3307b95f85e6110838d6438",
            "0x8a2c578dd4ed6486daeadb8bb99cdff9c09a4b8ce91b5d5140f5d0065ae10a42",
            "0x0000000000000000000000000000000000000000000000000000000000000000",
            "0x000000000000000000000000833589fcd6edb6e08f4c7c32d4f71b54bda02913"
          ],
          "data": "0x00000000000000000000000000000000000000000000000000000000008000000000000000000000000000000000000000000000000000000000000000000014000000000000000000000000340185a3f276d9bcc0bf9e9c5322b1c1571940c0000000000000000000000000000000000000000000029a359e4a72dd05e6d317fffffffffffffffffffffffffffffffffffffffffffffffffffffffffffce83f",
          "blockHash": "0x1dc215e580a650456930a61eea9d6e95438e7a103f2c61bed411fe49dce8ca59",
          "blockNumber": "0x1be380c",
          "transactionHash": "0x82292f270229531c88db6b60ca7ebe6b763db0aa6c1dcb2bb51043a7d7d98e62",
          "transactionIndex": "0x42",
          "logIndex": "0xa5",
          "removed": false
        }
      ],
      "logsBloom": "0x00000000000000000000000000000000000000000000000000000000000000000000000000000000000000000040000000000000000000000000000000000000000008000000040000000000000000000000000000000000000000000000000000000000020000000000000000000800010000000000000000000000000000000000000000004008400000000000000000000001000000000000000000200000000000000000000000000000000000000000000000008000000000000000000000000000000000000000000000000000000800000000000000000000000020000000000000000000000000000000000000000400000000000000000000000000",
      "type": "0x0",
      "transactionHash": "0x82292f270229531c88db6b60ca7ebe6b763db0aa6c1dcb2bb51043a7d7d98e62",
      "transactionIndex": "0x42",
      "blockHash": "0x1dc215e580a650456930a61eea9d6e95438e7a103f2c61bed411fe49dce8ca59",
      "blockNumber": "0x1be380c",
      "gasUsed": "0xca71",
      "effectiveGasPrice": "0x1d28eb",
      "from": "0xe911f518449ba0011d84b047b4cde50daa081ec1",
      "to": "0x498581ff718922c3f8e6a244956af099b2652b2b",
      "contractAddress": null,
      "l1BaseFeeScalar": "0x8dd",
      "l1BlobBaseFee": "0x1",
      "l1BlobBaseFeeScalar": "0x101c12",
      "l1Fee": "0x592b4ea3",
      "l1GasPrice": "0x14cfa687",
      "l1GasUsed": "0x760"
    },
    {
      "status": "0x1",
      "cumulativeGasUsed": "0x105700c",
      "logs": [],
      "logsBloom": "0x00000000000000000000000000000000000000000000000000000000000000000000000000000000000000000000000000000000000000000000000000000000000000000000000000000000000000000000000000000000000000000000000000000000000000000000000000000000000000000000000000000000000000000000000000000000000000000000000000000000000000000000000000000000000000000000000000000000000000000000000000000000000000000000000000000000000000000000000000000000000000000000000000000000000000000000000000000000000000000000000000000000000000000000000000000000",
      "type": "0x0",
      "transactionHash": "0x151c694f56dda8ddbb3fdc4ef9574703d25f49bda380db1242e5709b0f4e865c",
      "transactionIndex": "0x37",
      "blockHash": "0x8b14db39c935b37f77c90d9ee2fab80367995192493f905169121754fc2f628b",
      "blockNumber": "0x1be380e",
      "gasUsed": "0xb5ae",
      "effectiveGasPrice": "0x1d28eb",
      "from": "0xe911f518449ba0011d84b047b4cde50daa081ec1",
      "to": "0x18db1d6e9ccccb54c739f2017f81ae014a8d1059",
      "contractAddress": null,
      "l1BaseFeeScalar": "0x8dd",
      "l1BlobBaseFee": "0x1",
      "l1BlobBaseFeeScalar": "0x101c12",
      "l1Fee": "0x45dfa4cb",
      "l1GasPrice": "0x133f2ea2",
      "l1GasUsed": "0x640"
    },
    {
      "status": "0x1",
      "cumulativeGasUsed": "0x1307978",
      "logs": [
        {
          "address": "0x340185a3f276d9bcc0bf9e9c5322b1c1571940c0",
          "topics": [
            "0x14b2b80e0d62303dc85494859f35a84579160aafbd650180ddf526b1ab547bd6",
            "0x8a2c578dd4ed6486daeadb8bb99cdff9c09a4b8ce91b5d5140f5d0065ae10a42"
          ],
          "data": "0x0000000000000000000000000000000000000000000000000000000000000190",
          "blockHash": "0x03d204be478a5103e165b379c52ba828c3bb44bf31deb35644ed05dfa7a7097c",
          "blockNumber": "0x1be3810",
          "transactionHash": "0x92d95b8a58c24b4fde387137d4b8b2c5e928c27418d77ce2c8df0bf81e044b01",
          "transactionIndex": "0x33",
          "logIndex": "0x124",
          "removed": false
        }
      ],
      "logsBloom": "0x00000000000000000000000000000000000000000000000000000000000000000000000000000000000000000040000000000000000000000000000000000000000008000010000000000000000000000000000000000000000000000000000000000000000000000000000000000000010000000000000000000000000000000000000000010000000000000000000000000000400000000000000000000000000000000000000000000000000000000000000000008000000002000000000000000000000000000000000000000000000000000000000000000000000000000000000000000000000002000000000000000000000000000000000000000000",
      "type": "0x0",
      "transactionHash": "0x92d95b8a58c24b4fde387137d4b8b2c5e928c27418d77ce2c8df0bf81e044b01",
      "transactionIndex": "0x33",
      "blockHash": "0x03d204be478a5103e165b379c52ba828c3bb44bf31deb35644ed05dfa7a7097c",
      "blockNumber": "0x1be3810",
      "gasUsed": "0x9176",
      "effectiveGasPrice": "0x1d28eb",
      "from": "0xe911f518449ba0011d84b047b4cde50daa081ec1",
      "to": "0x340185a3f276d9bcc0bf9e9c5322b1c1571940c0",
      "contractAddress": null,
      "l1BaseFeeScalar": "0x8dd",
      "l1BlobBaseFee": "0x1",
      "l1BlobBaseFeeScalar": "0x101c12",
      "l1Fee": "0x45dfa4cb",
      "l1GasPrice": "0x133f2ea2",
      "l1GasUsed": "0x640"
    },
    {
      "status": "0x1",
      "cumulativeGasUsed": "0x1514b5f",
      "logs": [],
      "logsBloom": "0x00000000000000000000000000000000000000000000000000000000000000000000000000000000000000000000000000000000000000000000000000000000000000000000000000000000000000000000000000000000000000000000000000000000000000000000000000000000000000000000000000000000000000000000000000000000000000000000000000000000000000000000000000000000000000000000000000000000000000000000000000000000000000000000000000000000000000000000000000000000000000000000000000000000000000000000000000000000000000000000000000000000000000000000000000000000",
      "type": "0x0",
      "transactionHash": "0xa571f52a36845e34a1c0b45968d0bb759da2284140c8438e5ad737e4bdd209ff",
      "transactionIndex": "0x48",
      "blockHash": "0x836408cbfd5fe0feee239b717580a982e51cac7d950429b8e81f5dc1de1bc5f8",
      "blockNumber": "0x1be3812",
      "gasUsed": "0x22338",
      "effectiveGasPrice": "0x1d28eb",
      "from": "0xe911f518449ba0011d84b047b4cde50daa081ec1",
      "to": "0x628a822ec5acc74b01d5770dd8a9624f0d529ff2",
      "contractAddress": null,
      "l1BaseFeeScalar": "0x8dd",
      "l1BlobBaseFee": "0x1",
      "l1BlobBaseFeeScalar": "0x101c12",
      "l1Fee": "0x5bd18237",
      "l1GasPrice": "0x133f2ea2",
      "l1GasUsed": "0x836"
    }
  ],
  "libraries": [],
  "pending": [],
  "returns": {},
  "timestamp": 1745276168,
  "chain": 8453,
  "commit": "b5e792e"
}