{
  "transactions": [
    {
      "hash": "0xb8ce09c471ee0be49cb8274f8c4bd57a4009a573af6189b8f30f74c71aa91f2b",
      "transactionType": "CALL",
      "contractName": null,
      "contractAddress": "0x7c48916b4024b1365f578a2a9a4f02ffbbb8a25c",
      "function": "setExecutablePositionsLimit(uint256)",
      "arguments": [
        "5"
      ],
      "transaction": {
        "from": "0xe911f518449ba0011d84b047b4cde50daa081ec1",
        "to": "0x7c48916b4024b1365f578a2a9a4f02ffbbb8a25c",
        "value": "0x0",
        "input": "0xb24854940000000000000000000000000000000000000000000000000000000000000005",
        "nonce": "0x20",
        "chainId": "0x2105"
      },
      "additionalContracts": [],
      "isFixedGasLimit": false
    },
    {
      "hash": "0x5ea447cac253dc795f174be1c6127cd98e87110e0cc0edcb8556b29003baf0a2",
      "transactionType": "CALL",
      "contractName": null,
      "contractAddress": "0x7c48916b4024b1365f578a2a9a4f02ffbbb8a25c",
      "function": "setHook(address)",
      "arguments": [
        "0xd4cbd60FD6E0718cA3Ac33130B16d2a20160C040"
      ],
      "transaction": {
        "from": "0xe911f518449ba0011d84b047b4cde50daa081ec1",
        "to": "0x7c48916b4024b1365f578a2a9a4f02ffbbb8a25c",
        "value": "0x0",
        "input": "0x3dfd3873000000000000000000000000d4cbd60fd6e0718ca3ac33130b16d2a20160c040",
        "nonce": "0x21",
        "chainId": "0x2105"
      },
      "additionalContracts": [],
      "isFixedGasLimit": false
    },
    {
      "hash": "0xe0ef5659ef98ec420878693b3a856f59fe8b5269b80ab255844bea0550a0f9e9",
      "transactionType": "CALL",
      "contractName": null,
      "contractAddress": "0x498581ff718922c3f8e6a244956af099b2652b2b",
      "function": "initialize((address,address,uint24,int24,address),uint160)",
      "arguments": [
        "(0x0000000000000000000000000000000000000000, 0x833589fCD6eDb6E08f4c7C32D4f71b54bdA02913, 500, 10, 0xd4cbd60FD6E0718cA3Ac33130B16d2a20160C040)",
        "3097120696223257902683499"
      ],
      "transaction": {
        "from": "0xe911f518449ba0011d84b047b4cde50daa081ec1",
        "to": "0x498581ff718922c3f8e6a244956af099b2652b2b",
        "value": "0x0",
        "input": "0x6276cbbe0000000000000000000000000000000000000000000000000000000000000000000000000000000000000000833589fcd6edb6e08f4c7c32d4f71b54bda0291300000000000000000000000000000000000000000000000000000000000001f4000000000000000000000000000000000000000000000000000000000000000a000000000000000000000000d4cbd60fd6e0718ca3ac33130b16d2a20160c040000000000000000000000000000000000000000000028fd73fd65e55f827956b",
        "nonce": "0x22",
        "chainId": "0x2105"
      },
      "additionalContracts": [],
      "isFixedGasLimit": false
    },
    {
      "hash": "0x1e8583cfba3f6e2793b005dd3e0eda93a2f29785e923a5c88a2c1040807de055",
      "transactionType": "CALL",
      "contractName": null,
      "contractAddress": "0x7c48916b4024b1365f578a2a9a4f02ffbbb8a25c",
      "function": "setWhitelistedPool(bytes32,bool)",
      "arguments": [
        "0x3725098f1a844e904ce2d55f46221baaa29e60beebd5865494048e9f9b2d2687",
        "true"
      ],
      "transaction": {
        "from": "0xe911f518449ba0011d84b047b4cde50daa081ec1",
        "to": "0x7c48916b4024b1365f578a2a9a4f02ffbbb8a25c",
        "value": "0x0",
        "input": "0x6a90700b3725098f1a844e904ce2d55f46221baaa29e60beebd5865494048e9f9b2d26870000000000000000000000000000000000000000000000000000000000000001",
        "nonce": "0x23",
        "chainId": "0x2105"
      },
      "additionalContracts": [],
      "isFixedGasLimit": false
    },
    {
      "hash": "0x556c0103caf9ac82041bea93a37a5c2c0f1f58341c37bfcbe7b6f83f1b78581e",
      "transactionType": "CALL",
      "contractName": null,
      "contractAddress": "0xc1835b0264a1c5ecfd5c3988839622cac69bbb1a",
      "function": "addPoolId(bytes32,(address,address,uint24,int24,address))",
      "arguments": [
        "0x3725098f1a844e904ce2d55f46221baaa29e60beebd5865494048e9f9b2d2687",
        "(0x0000000000000000000000000000000000000000, 0x833589fCD6eDb6E08f4c7C32D4f71b54bdA02913, 500, 10, 0xd4cbd60FD6E0718cA3Ac33130B16d2a20160C040)"
      ],
      "transaction": {
        "from": "0xe911f518449ba0011d84b047b4cde50daa081ec1",
        "to": "0xc1835b0264a1c5ecfd5c3988839622cac69bbb1a",
        "value": "0x0",
        "input": "0xd6b25f0b3725098f1a844e904ce2d55f46221baaa29e60beebd5865494048e9f9b2d26870000000000000000000000000000000000000000000000000000000000000000000000000000000000000000833589fcd6edb6e08f4c7c32d4f71b54bda0291300000000000000000000000000000000000000000000000000000000000001f4000000000000000000000000000000000000000000000000000000000000000a000000000000000000000000d4cbd60fd6e0718ca3ac33130b16d2a20160c040",
        "nonce": "0x24",
        "chainId": "0x2105"
      },
      "additionalContracts": [],
      "isFixedGasLimit": false
    }
  ],
  "receipts": [
    {
      "status": "0x1",
      "cumulativeGasUsed": "0x13064d9",
      "logs": [],
      "logsBloom": "0x00000000000000000000000000000000000000000000000000000000000000000000000000000000000000000000000000000000000000000000000000000000000000000000000000000000000000000000000000000000000000000000000000000000000000000000000000000000000000000000000000000000000000000000000000000000000000000000000000000000000000000000000000000000000000000000000000000000000000000000000000000000000000000000000000000000000000000000000000000000000000000000000000000000000000000000000000000000000000000000000000000000000000000000000000000000",
      "type": "0x0",
      "transactionHash": "0xb8ce09c471ee0be49cb8274f8c4bd57a4009a573af6189b8f30f74c71aa91f2b",
      "transactionIndex": "0x3e",
      "blockHash": "0x97c0335ac40a22e310c36dae08be0b6a4fc55b69f82156b5b87b0fb050774a4c",
      "blockNumber": "0x1b6f2f3",
      "gasUsed": "0x725c",
      "effectiveGasPrice": "0x19fd3c",
      "from": "0xe911f518449ba0011d84b047b4cde50daa081ec1",
      "to": "0x7c48916b4024b1365f578a2a9a4f02ffbbb8a25c",
      "contractAddress": null,
      "l1BaseFeeScalar": "0x8dd",
      "l1BlobBaseFee": "0x23d03",
      "l1BlobBaseFeeScalar": "0x101c12",
      "l1Fee": "0x6cbba730",
      "l1GasPrice": "0x1db24936",
      "l1GasUsed": "0x640"
    },
    {
      "status": "0x1",
      "cumulativeGasUsed": "0x21fdca1",
      "logs": [],
      "logsBloom": "0x00000000000000000000000000000000000000000000000000000000000000000000000000000000000000000000000000000000000000000000000000000000000000000000000000000000000000000000000000000000000000000000000000000000000000000000000000000000000000000000000000000000000000000000000000000000000000000000000000000000000000000000000000000000000000000000000000000000000000000000000000000000000000000000000000000000000000000000000000000000000000000000000000000000000000000000000000000000000000000000000000000000000000000000000000000000",
      "type": "0x0",
      "transactionHash": "0x5ea447cac253dc795f174be1c6127cd98e87110e0cc0edcb8556b29003baf0a2",
      "transactionIndex": "0x9f",
      "blockHash": "0xc1332777cac6b64903784bc958c5169ef800f29f0f603b49cbfe9fb8390bf91f",
      "blockNumber": "0x1b6f2f5",
      "gasUsed": "0xb44c",
      "effectiveGasPrice": "0x19fd3c",
      "from": "0xe911f518449ba0011d84b047b4cde50daa081ec1",
      "to": "0x7c48916b4024b1365f578a2a9a4f02ffbbb8a25c",
      "contractAddress": null,
      "l1BaseFeeScalar": "0x8dd",
      "l1BlobBaseFee": "0x23d03",
      "l1BlobBaseFeeScalar": "0x101c12",
      "l1Fee": "0x6cbba730",
      "l1GasPrice": "0x1db24936",
      "l1GasUsed": "0x640"
    },
    {
      "status": "0x1",
      "cumulativeGasUsed": "0x196b144",
      "logs": [
        {
          "address": "0x498581ff718922c3f8e6a244956af099b2652b2b",
          "topics": [
            "0xdd466e674ea557f56295e2d0218a125ea4b4f0f6f3307b95f85e6110838d6438",
            "0x3725098f1a844e904ce2d55f46221baaa29e60beebd5865494048e9f9b2d2687",
            "0x0000000000000000000000000000000000000000000000000000000000000000",
            "0x000000000000000000000000833589fcd6edb6e08f4c7c32d4f71b54bda02913"
          ],
          "data": "0x00000000000000000000000000000000000000000000000000000000000001f4000000000000000000000000000000000000000000000000000000000000000a000000000000000000000000d4cbd60fd6e0718ca3ac33130b16d2a20160c040000000000000000000000000000000000000000000028fd73fd65e55f827956bfffffffffffffffffffffffffffffffffffffffffffffffffffffffffffce705",
          "blockHash": "0xd3acd5c766b85adc9eb5aa00af5aee23f2fefc8f890cafdd589cc2c1ec2c7639",
          "blockNumber": "0x1b6f2f7",
          "transactionHash": "0xe0ef5659ef98ec420878693b3a856f59fe8b5269b80ab255844bea0550a0f9e9",
          "transactionIndex": "0x51",
          "logIndex": "0xad",
          "removed": false
        }
      ],
      "logsBloom": "0x00000000000000000000000000000000000002000000000000000000000000000000000000000000000000000000000000000000000000000000000000000000000000800000040000000000000000000000000000000000000000000000000000000000020000000000000000000800010000000000000000000000000000000000000000004008400000000000000000000001000000000000000000200000000000000000000000000000000000000000000000000000000000000000000000000000000000000000000000000000000800000000800000000000000020000000000000000000000000000000000000000400000000000000000000000000",
      "type": "0x0",
      "transactionHash": "0xe0ef5659ef98ec420878693b3a856f59fe8b5269b80ab255844bea0550a0f9e9",
      "transactionIndex": "0x51",
      "blockHash": "0xd3acd5c766b85adc9eb5aa00af5aee23f2fefc8f890cafdd589cc2c1ec2c7639",
      "blockNumber": "0x1b6f2f7",
      "gasUsed": "0xcb0e",
      "effectiveGasPrice": "0x19fd3c",
      "from": "0xe911f518449ba0011d84b047b4cde50daa081ec1",
      "to": "0x498581ff718922c3f8e6a244956af099b2652b2b",
      "contractAddress": null,
      "l1BaseFeeScalar": "0x8dd",
      "l1BlobBaseFee": "0x23d03",
      "l1BlobBaseFeeScalar": "0x101c12",
      "l1Fee": "0x8225ff0d",
      "l1GasPrice": "0x1db24936",
      "l1GasUsed": "0x77b"
    },
    {
      "status": "0x1",
      "cumulativeGasUsed": "0x3a3daba",
      "logs": [],
      "logsBloom": "0x00000000000000000000000000000000000000000000000000000000000000000000000000000000000000000000000000000000000000000000000000000000000000000000000000000000000000000000000000000000000000000000000000000000000000000000000000000000000000000000000000000000000000000000000000000000000000000000000000000000000000000000000000000000000000000000000000000000000000000000000000000000000000000000000000000000000000000000000000000000000000000000000000000000000000000000000000000000000000000000000000000000000000000000000000000000",
      "type": "0x0",
      "transactionHash": "0x1e8583cfba3f6e2793b005dd3e0eda93a2f29785e923a5c88a2c1040807de055",
      "transactionIndex": "0x4d",
      "blockHash": "0x51b78db651789ae9360d837abf43f30391efce7c5d749303f4ad8a3ccdadce20",
      "blockNumber": "0x1b6f2f9",
      "gasUsed": "0xb685",
      "effectiveGasPrice": "0x19fd3c",
      "from": "0xe911f518449ba0011d84b047b4cde50daa081ec1",
      "to": "0x7c48916b4024b1365f578a2a9a4f02ffbbb8a25c",
      "contractAddress": null,
      "l1BaseFeeScalar": "0x8dd",
      "l1BlobBaseFee": "0x284a4",
      "l1BlobBaseFeeScalar": "0x101c12",
      "l1Fee": "0x6bab17fa",
      "l1GasPrice": "0x1d5f1275",
      "l1GasUsed": "0x640"
    },
    {
      "status": "0x1",
      "cumulativeGasUsed": "0x337471d",
      "logs": [],
      "logsBloom": "0x00000000000000000000000000000000000000000000000000000000000000000000000000000000000000000000000000000000000000000000000000000000000000000000000000000000000000000000000000000000000000000000000000000000000000000000000000000000000000000000000000000000000000000000000000000000000000000000000000000000000000000000000000000000000000000000000000000000000000000000000000000000000000000000000000000000000000000000000000000000000000000000000000000000000000000000000000000000000000000000000000000000000000000000000000000000",
      "type": "0x0",
      "transactionHash": "0x556c0103caf9ac82041bea93a37a5c2c0f1f58341c37bfcbe7b6f83f1b78581e",
      "transactionIndex": "0x56",
      "blockHash": "0x35e1223b4df9ad576fa131ceb6202674834e05b249b6a09e6502bf893ee210c1",
      "blockNumber": "0x1b6f2fb",
      "gasUsed": "0x22356",
      "effectiveGasPrice": "0x19fd3c",
      "from": "0xe911f518449ba0011d84b047b4cde50daa081ec1",
      "to": "0xc1835b0264a1c5ecfd5c3988839622cac69bbb1a",
      "contractAddress": null,
      "l1BaseFeeScalar": "0x8dd",
      "l1BlobBaseFee": "0x284a4",
      "l1BlobBaseFeeScalar": "0x101c12",
      "l1Fee": "0x8e623c01",
      "l1GasPrice": "0x1d5f1275",
      "l1GasUsed": "0x843"
    }
  ],
  "libraries": [],
  "pending": [],
  "returns": {},
  "timestamp": 1744323290,
  "chain": 8453,
  "commit": "b2c9ec1"
}