{
  "transactions": [
    {
      "hash": "0xbe7c1fed5e5ee4e018b0409642c305e98b7596179bd39f51f945e7976a58f931",
      "transactionType": "CALL",
      "contractName": null,
      "contractAddress": "0x049a72032a08409712268aae1bd6f0a118bdf734",
      "function": "setExecutablePositionsLimit(uint256)",
      "arguments": [
        "75"
      ],
      "transaction": {
        "from": "0xe911f518449ba0011d84b047b4cde50daa081ec1",
        "to": "0x049a72032a08409712268aae1bd6f0a118bdf734",
        "value": "0x0",
        "input": "0xb2485494000000000000000000000000000000000000000000000000000000000000004b",
        "nonce": "0x49",
        "chainId": "0x2105"
      },
      "additionalContracts": [],
      "isFixedGasLimit": false
    },
    {
      "hash": "0x6f0bde59e29081ae8b9d77326a2a4d194282f364ef1f35f8c6d8683cb6dd78a1",
      "transactionType": "CALL",
      "contractName": null,
      "contractAddress": "0x049a72032a08409712268aae1bd6f0a118bdf734",
      "function": "setHook(address)",
      "arguments": [
        "0x6C91F056443249a1C3BBD9dA2e5160feCE9480c0"
      ],
      "transaction": {
        "from": "0xe911f518449ba0011d84b047b4cde50daa081ec1",
        "to": "0x049a72032a08409712268aae1bd6f0a118bdf734",
        "value": "0x0",
        "input": "0x3dfd38730000000000000000000000006c91f056443249a1c3bbd9da2e5160fece9480c0",
        "nonce": "0x4a",
        "chainId": "0x2105"
      },
      "additionalContracts": [],
      "isFixedGasLimit": false
    },
    {
      "hash": "0xd91d9153ec20c8adbef47adab15d355100e7233e6ae26506f2332b63b07eaff2",
      "transactionType": "CALL",
      "contractName": null,
      "contractAddress": "0x498581ff718922c3f8e6a244956af099b2652b2b",
      "function": "initialize((address,address,uint24,int24,address),uint160)",
      "arguments": [
        "(0x0000000000000000000000000000000000000000, 0x833589fCD6eDb6E08f4c7C32D4f71b54bdA02913, 8388608, 20, 0x6C91F056443249a1C3BBD9dA2e5160feCE9480c0)",
        "3366365039730576770134390"
      ],
      "transaction": {
        "from": "0xe911f518449ba0011d84b047b4cde50daa081ec1",
        "to": "0x498581ff718922c3f8e6a244956af099b2652b2b",
        "value": "0x0",
        "input": "0x6276cbbe0000000000000000000000000000000000000000000000000000000000000000000000000000000000000000833589fcd6edb6e08f4c7c32d4f71b54bda02913000000000000000000000000000000000000000000000000000000000080000000000000000000000000000000000000000000000000000000000000000000140000000000000000000000006c91f056443249a1c3bbd9da2e5160fece9480c000000000000000000000000000000000000000000002c8db03b47c92986ef176",
        "nonce": "0x4b",
        "chainId": "0x2105"
      },
      "additionalContracts": [],
      "isFixedGasLimit": false
    },
    {
      "hash": "0xe32fd68bfb1dff2875e9f36df52138efd17210d7c3b0c604ba5c1273d8e3abd6",
      "transactionType": "CALL",
      "contractName": null,
      "contractAddress": "0x049a72032a08409712268aae1bd6f0a118bdf734",
      "function": "setWhitelistedPool(bytes32,bool)",
      "arguments": [
        "0xc6394c6b80b1615a5bc6c07d89224a31ffccdbbd30e7a257d2159a8d2905df9c",
        "true"
      ],
      "transaction": {
        "from": "0xe911f518449ba0011d84b047b4cde50daa081ec1",
        "to": "0x049a72032a08409712268aae1bd6f0a118bdf734",
        "value": "0x0",
        "input": "0x6a90700bc6394c6b80b1615a5bc6c07d89224a31ffccdbbd30e7a257d2159a8d2905df9c0000000000000000000000000000000000000000000000000000000000000001",
        "nonce": "0x4c",
        "chainId": "0x2105"
      },
      "additionalContracts": [],
      "isFixedGasLimit": false
    },
    {
      "hash": "0x6c4d5babf6a7760a67dd7583880a6e3b1d0c2f2631a03d7c6e102a68c4920305",
      "transactionType": "CALL",
      "contractName": null,
      "contractAddress": "0x6c91f056443249a1c3bbd9da2e5160fece9480c0",
      "function": "updateDynamicLPFee((address,address,uint24,int24,address),uint24)",
      "arguments": [
        "(0x0000000000000000000000000000000000000000, 0x833589fCD6eDb6E08f4c7C32D4f71b54bdA02913, 8388608, 20, 0x6C91F056443249a1C3BBD9dA2e5160feCE9480c0)",
        "400"
      ],
      "transaction": {
        "from": "0xe911f518449ba0011d84b047b4cde50daa081ec1",
        "to": "0x6c91f056443249a1c3bbd9da2e5160fece9480c0",
        "value": "0x0",
        "input": "0x527596510000000000000000000000000000000000000000000000000000000000000000000000000000000000000000833589fcd6edb6e08f4c7c32d4f71b54bda02913000000000000000000000000000000000000000000000000000000000080000000000000000000000000000000000000000000000000000000000000000000140000000000000000000000006c91f056443249a1c3bbd9da2e5160fece9480c00000000000000000000000000000000000000000000000000000000000000190",
        "nonce": "0x4d",
        "chainId": "0x2105"
      },
      "additionalContracts": [],
      "isFixedGasLimit": false
    },
    {
      "hash": "0xa21e5e86b861121ad944697ddccd129e6ac6c31ccdcb4ba031031861197f60cc",
      "transactionType": "CALL",
      "contractName": null,
      "contractAddress": "0xe0c4b7b6b12852d1489718a34ea0f2351d3fbc13",
      "function": "addPoolId(bytes32,(address,address,uint24,int24,address))",
      "arguments": [
        "0xc6394c6b80b1615a5bc6c07d89224a31ffccdbbd30e7a257d2159a8d2905df9c",
        "(0x0000000000000000000000000000000000000000, 0x833589fCD6eDb6E08f4c7C32D4f71b54bdA02913, 8388608, 20, 0x6C91F056443249a1C3BBD9dA2e5160feCE9480c0)"
      ],
      "transaction": {
        "from": "0xe911f518449ba0011d84b047b4cde50daa081ec1",
        "to": "0xe0c4b7b6b12852d1489718a34ea0f2351d3fbc13",
        "value": "0x0",
        "input": "0xd6b25f0bc6394c6b80b1615a5bc6c07d89224a31ffccdbbd30e7a257d2159a8d2905df9c0000000000000000000000000000000000000000000000000000000000000000000000000000000000000000833589fcd6edb6e08f4c7c32d4f71b54bda02913000000000000000000000000000000000000000000000000000000000080000000000000000000000000000000000000000000000000000000000000000000140000000000000000000000006c91f056443249a1c3bbd9da2e5160fece9480c0",
        "nonce": "0x4e",
        "chainId": "0x2105"
      },
      "additionalContracts": [],
      "isFixedGasLimit": false
    }
  ],
  "receipts": [
    {
      "status": "0x1",
      "cumulativeGasUsed": "0xa53962",
      "logs": [],
      "logsBloom": "0x00000000000000000000000000000000000000000000000000000000000000000000000000000000000000000000000000000000000000000000000000000000000000000000000000000000000000000000000000000000000000000000000000000000000000000000000000000000000000000000000000000000000000000000000000000000000000000000000000000000000000000000000000000000000000000000000000000000000000000000000000000000000000000000000000000000000000000000000000000000000000000000000000000000000000000000000000000000000000000000000000000000000000000000000000000000",
      "type": "0x0",
      "transactionHash": "0xbe7c1fed5e5ee4e018b0409642c305e98b7596179bd39f51f945e7976a58f931",
      "transactionIndex": "0x2e",
      "blockHash": "0x440446a231d061d6119a69d5cf72d6c147bd5177b765c2d05b86af42290178d4",
      "blockNumber": "0x1bf10af",
      "gasUsed": "0x652d",
      "effectiveGasPrice": "0x21ae0f",
      "from": "0xe911f518449ba0011d84b047b4cde50daa081ec1",
      "to": "0x049a72032a08409712268aae1bd6f0a118bdf734",
      "contractAddress": null,
      "l1BaseFeeScalar": "0x8dd",
      "l1BlobBaseFee": "0x1309423560",
      "l1BlobBaseFeeScalar": "0x101c12",
      "l1Fee": "0x7dab9bf50cc",
      "l1GasPrice": "0x43a80b53",
      "l1GasUsed": "0x640"
    },
    {
      "status": "0x1",
      "cumulativeGasUsed": "0xd6dace",
      "logs": [],
      "logsBloom": "0x00000000000000000000000000000000000000000000000000000000000000000000000000000000000000000000000000000000000000000000000000000000000000000000000000000000000000000000000000000000000000000000000000000000000000000000000000000000000000000000000000000000000000000000000000000000000000000000000000000000000000000000000000000000000000000000000000000000000000000000000000000000000000000000000000000000000000000000000000000000000000000000000000000000000000000000000000000000000000000000000000000000000000000000000000000000",
      "type": "0x0",
      "transactionHash": "0x6f0bde59e29081ae8b9d77326a2a4d194282f364ef1f35f8c6d8683cb6dd78a1",
      "transactionIndex": "0x3a",
      "blockHash": "0x6fe9e60f3d26dd6fe228b367fd2557b9afb13c79b5116ce29ca94693ae63d38c",
      "blockNumber": "0x1bf10b1",
      "gasUsed": "0xb456",
      "effectiveGasPrice": "0x21ae0f",
      "from": "0xe911f518449ba0011d84b047b4cde50daa081ec1",
      "to": "0x049a72032a08409712268aae1bd6f0a118bdf734",
      "contractAddress": null,
      "l1BaseFeeScalar": "0x8dd",
      "l1BlobBaseFee": "0x1309423560",
      "l1BlobBaseFeeScalar": "0x101c12",
      "l1Fee": "0x7dab9bf50cc",
      "l1GasPrice": "0x43a80b53",
      "l1GasUsed": "0x640"
    },
    {
      "status": "0x1",
      "cumulativeGasUsed": "0x10e299b",
      "logs": [
        {
          "address": "0x498581ff718922c3f8e6a244956af099b2652b2b",
          "topics": [
            "0xdd466e674ea557f56295e2d0218a125ea4b4f0f6f3307b95f85e6110838d6438",
            "0xc6394c6b80b1615a5bc6c07d89224a31ffccdbbd30e7a257d2159a8d2905df9c",
            "0x0000000000000000000000000000000000000000000000000000000000000000",
            "0x000000000000000000000000833589fcd6edb6e08f4c7c32d4f71b54bda02913"
          ],
          "data": "0x000000000000000000000000000000000000000000000000000000000080000000000000000000000000000000000000000000000000000000000000000000140000000000000000000000006c91f056443249a1c3bbd9da2e5160fece9480c000000000000000000000000000000000000000000002c8db03b47c92986ef176fffffffffffffffffffffffffffffffffffffffffffffffffffffffffffced88",
          "blockHash": "0x7af81c55c7faf0fdb9d7d402a5262d36ba804893376be3ca0b8ab53f833b991a",
          "blockNumber": "0x1bf10b3",
          "transactionHash": "0xd91d9153ec20c8adbef47adab15d355100e7233e6ae26506f2332b63b07eaff2",
          "transactionIndex": "0x2c",
          "logIndex": "0xba",
          "removed": false
        }
      ],
      "logsBloom": "0x00000000000000000000000000000000000000000000000000000000000000000000000000000000000000000000000000000000000000000000000000000000000000000000040000000000000000000000000000000000000000000000000000000000020000000000000000000800010000000000000000000000000000002000000000004008400000000000000000000001000000040000000000200000000000000000000000000000000000001000000000000000000000000000000000000000000000000000000000000000000800000000000000000000000020000000000000000000000000000000000000000400000000000000000000000000",
      "type": "0x0",
      "transactionHash": "0xd91d9153ec20c8adbef47adab15d355100e7233e6ae26506f2332b63b07eaff2",
      "transactionIndex": "0x2c",
      "blockHash": "0x7af81c55c7faf0fdb9d7d402a5262d36ba804893376be3ca0b8ab53f833b991a",
      "blockNumber": "0x1bf10b3",
      "gasUsed": "0xca91",
      "effectiveGasPrice": "0x21ae0f",
      "from": "0xe911f518449ba0011d84b047b4cde50daa081ec1",
      "to": "0x498581ff718922c3f8e6a244956af099b2652b2b",
      "contractAddress": null,
      "l1BaseFeeScalar": "0x8dd",
      "l1BlobBaseFee": "0x156a6a80b8",
      "l1BlobBaseFeeScalar": "0x101c12",
      "l1Fee": "0xa6da5e545ad",
      "l1GasPrice": "0x4652c82f",
      "l1GasUsed": "0x760"
    },
    {
      "status": "0x1",
      "cumulativeGasUsed": "0xcb0d00",
      "logs": [],
      "logsBloom": "0x00000000000000000000000000000000000000000000000000000000000000000000000000000000000000000000000000000000000000000000000000000000000000000000000000000000000000000000000000000000000000000000000000000000000000000000000000000000000000000000000000000000000000000000000000000000000000000000000000000000000000000000000000000000000000000000000000000000000000000000000000000000000000000000000000000000000000000000000000000000000000000000000000000000000000000000000000000000000000000000000000000000000000000000000000000000",
      "type": "0x0",
      "transactionHash": "0xe32fd68bfb1dff2875e9f36df52138efd17210d7c3b0c604ba5c1273d8e3abd6",
      "transactionIndex": "0x25",
      "blockHash": "0x7e686a491d48dd0bb97eb60b614586f28bb762f8674bfc364bee866df0faa605",
      "blockNumber": "0x1bf10b5",
      "gasUsed": "0xb598",
      "effectiveGasPrice": "0x21ae0f",
      "from": "0xe911f518449ba0011d84b047b4cde50daa081ec1",
      "to": "0x049a72032a08409712268aae1bd6f0a118bdf734",
      "contractAddress": null,
      "l1BaseFeeScalar": "0x8dd",
      "l1BlobBaseFee": "0x156a6a80b8",
      "l1BlobBaseFeeScalar": "0x101c12",
      "l1Fee": "0x8d5fbf3ee88",
      "l1GasPrice": "0x4652c82f",
      "l1GasUsed": "0x640"
    },
    {
      "status": "0x1",
      "cumulativeGasUsed": "0xce8c45",
      "logs": [
        {
          "address": "0x6c91f056443249a1c3bbd9da2e5160fece9480c0",
          "topics": [
            "0x14b2b80e0d62303dc85494859f35a84579160aafbd650180ddf526b1ab547bd6",
            "0xc6394c6b80b1615a5bc6c07d89224a31ffccdbbd30e7a257d2159a8d2905df9c"
          ],
          "data": "0x0000000000000000000000000000000000000000000000000000000000000190",
          "blockHash": "0xacf0b0014ac4f0e531ff15c2edc5f917df64997cc6835680cda7f118af24f218",
          "blockNumber": "0x1bf10b7",
          "transactionHash": "0x6c4d5babf6a7760a67dd7583880a6e3b1d0c2f2631a03d7c6e102a68c4920305",
          "transactionIndex": "0x26",
          "logIndex": "0x6e",
          "removed": false
        }
      ],
      "logsBloom": "0x00000000000000000000000000000000000000000000000000000000000000000040000000000000000000000000000000000000000000000000000000000000000000000000000000000000000000000000000000000000000000000000000000000000000000000000000000000000000000000000000000000000000000002000000000000000000000000000000000000000400000040000008000000000400000000000000000000000000000001000000000000000000002000000000000000000000000000000000000000000000000000000000000000000000000000000000000000000000002000000000000000000000000000000000000000000",
      "type": "0x0",
      "transactionHash": "0x6c4d5babf6a7760a67dd7583880a6e3b1d0c2f2631a03d7c6e102a68c4920305",
      "transactionIndex": "0x26",
      "blockHash": "0xacf0b0014ac4f0e531ff15c2edc5f917df64997cc6835680cda7f118af24f218",
      "blockNumber": "0x1bf10b7",
      "gasUsed": "0x9176",
      "effectiveGasPrice": "0x21ae0f",
      "from": "0xe911f518449ba0011d84b047b4cde50daa081ec1",
      "to": "0x6c91f056443249a1c3bbd9da2e5160fece9480c0",
      "contractAddress": null,
      "l1BaseFeeScalar": "0x8dd",
      "l1BlobBaseFee": "0x156a6a80b8",
      "l1BlobBaseFeeScalar": "0x101c12",
      "l1Fee": "0x8d5fbf3ee88",
      "l1GasPrice": "0x4652c82f",
      "l1GasUsed": "0x640"
    },
    {
      "status": "0x1",
      "cumulativeGasUsed": "0xa1ebc6",
      "logs": [],
      "logsBloom": "0x00000000000000000000000000000000000000000000000000000000000000000000000000000000000000000000000000000000000000000000000000000000000000000000000000000000000000000000000000000000000000000000000000000000000000000000000000000000000000000000000000000000000000000000000000000000000000000000000000000000000000000000000000000000000000000000000000000000000000000000000000000000000000000000000000000000000000000000000000000000000000000000000000000000000000000000000000000000000000000000000000000000000000000000000000000000",
      "type": "0x0",
      "transactionHash": "0xa21e5e86b861121ad944697ddccd129e6ac6c31ccdcb4ba031031861197f60cc",
      "transactionIndex": "0x33",
      "blockHash": "0x97e674707b2f57d6082ae81b0956372cda8622b0bc7e5ddacd8e9782b43cf3ca",
      "blockNumber": "0x1bf10b9",
      "gasUsed": "0x22334",
      "effectiveGasPrice": "0x21ae0f",
      "from": "0xe911f518449ba0011d84b047b4cde50daa081ec1",
      "to": "0xe0c4b7b6b12852d1489718a34ea0f2351d3fbc13",
      "contractAddress": null,
      "l1BaseFeeScalar": "0x8dd",
      "l1BlobBaseFee": "0x156a6a80b8",
      "l1BlobBaseFeeScalar": "0x101c12",
      "l1Fee": "0xb9c6459b424",
      "l1GasPrice": "0x4652c82f",
      "l1GasUsed": "0x836"
    }
  ],
  "libraries": [],
  "pending": [],
  "returns": {},
  "timestamp": 1745387094,
  "chain": 8453,
  "commit": "72862e5"
}