{
  "transactions": [
    {
      "hash": "0x71f9bed73cb9f0095dde678f2537aad47dd2c59e11b20a34dfd8bc2d77ceea7a",
      "transactionType": "CALL",
      "contractName": null,
      "contractAddress": "0x049a72032a08409712268aae1bd6f0a118bdf734",
      "function": "setWhitelistedPool(bytes32,bool)",
      "arguments": [
        "0x60957c44c4a570e88c72fcc7c379b4ab86bf1f54748f9e63e95909aef97a9860",
        "true"
      ],
      "transaction": {
        "from": "0xe911f518449ba0011d84b047b4cde50daa081ec1",
        "to": "0x049a72032a08409712268aae1bd6f0a118bdf734",
        "value": "0x0",
        "input": "0x6a90700b60957c44c4a570e88c72fcc7c379b4ab86bf1f54748f9e63e95909aef97a98600000000000000000000000000000000000000000000000000000000000000001",
        "nonce": "0x53",
        "chainId": "0x2105"
      },
      "additionalContracts": [],
      "isFixedGasLimit": false
    },
    {
      "hash": "0x80b7cd4e057dd99e975510de550fde60ed2cb06546630f6eeccc00d3185961ee",
      "transactionType": "CALL",
      "contractName": null,
      "contractAddress": "0x6c91f056443249a1c3bbd9da2e5160fece9480c0",
      "function": "updateDynamicLPFee((address,address,uint24,int24,address),uint24)",
      "arguments": [
        "(0x833589fCD6eDb6E08f4c7C32D4f71b54bdA02913, 0xcbB7C0000aB88B473b1f5aFd9ef808440eed33Bf, 8388608, 20, 0x6C91F056443249a1C3BBD9dA2e5160feCE9480c0)",
        "450"
      ],
      "transaction": {
        "from": "0xe911f518449ba0011d84b047b4cde50daa081ec1",
        "to": "0x6c91f056443249a1c3bbd9da2e5160fece9480c0",
        "value": "0x0",
        "input": "0x52759651000000000000000000000000833589fcd6edb6e08f4c7c32d4f71b54bda02913000000000000000000000000cbb7c0000ab88b473b1f5afd9ef808440eed33bf000000000000000000000000000000000000000000000000000000000080000000000000000000000000000000000000000000000000000000000000000000140000000000000000000000006c91f056443249a1c3bbd9da2e5160fece9480c000000000000000000000000000000000000000000000000000000000000001c2",
        "nonce": "0x54",
        "chainId": "0x2105"
      },
      "additionalContracts": [],
      "isFixedGasLimit": false
    },
    {
      "hash": "0x20919f6f38011802b17300472d995024d5a1cbe2107a7aeb2e95b2a21955ba22",
      "transactionType": "CALL",
      "contractName": null,
      "contractAddress": "0xe0c4b7b6b12852d1489718a34ea0f2351d3fbc13",
      "function": "addPoolId(bytes32,(address,address,uint24,int24,address))",
      "arguments": [
        "0x60957c44c4a570e88c72fcc7c379b4ab86bf1f54748f9e63e95909aef97a9860",
        "(0x833589fCD6eDb6E08f4c7C32D4f71b54bdA02913, 0xcbB7C0000aB88B473b1f5aFd9ef808440eed33Bf, 8388608, 20, 0x6C91F056443249a1C3BBD9dA2e5160feCE9480c0)"
      ],
      "transaction": {
        "from": "0xe911f518449ba0011d84b047b4cde50daa081ec1",
        "to": "0xe0c4b7b6b12852d1489718a34ea0f2351d3fbc13",
        "value": "0x0",
        "input": "0xd6b25f0b60957c44c4a570e88c72fcc7c379b4ab86bf1f54748f9e63e95909aef97a9860000000000000000000000000833589fcd6edb6e08f4c7c32d4f71b54bda02913000000000000000000000000cbb7c0000ab88b473b1f5afd9ef808440eed33bf000000000000000000000000000000000000000000000000000000000080000000000000000000000000000000000000000000000000000000000000000000140000000000000000000000006c91f056443249a1c3bbd9da2e5160fece9480c0",
        "nonce": "0x55",
        "chainId": "0x2105"
      },
      "additionalContracts": [],
      "isFixedGasLimit": false
    }
  ],
  "receipts": [
    {
      "status": "0x1",
      "cumulativeGasUsed": "0xa4f286",
      "logs": [],
      "logsBloom": "0x00000000000000000000000000000000000000000000000000000000000000000000000000000000000000000000000000000000000000000000000000000000000000000000000000000000000000000000000000000000000000000000000000000000000000000000000000000000000000000000000000000000000000000000000000000000000000000000000000000000000000000000000000000000000000000000000000000000000000000000000000000000000000000000000000000000000000000000000000000000000000000000000000000000000000000000000000000000000000000000000000000000000000000000000000000000",
      "type": "0x0",
      "transactionHash": "0x71f9bed73cb9f0095dde678f2537aad47dd2c59e11b20a34dfd8bc2d77ceea7a",
      "transactionIndex": "0x15",
      "blockHash": "0x1c006ad44ea35b2216f090127c6bd1fdf4ea4032a68761ab88c4a104908ea339",
      "blockNumber": "0x1bf1477",
      "gasUsed": "0x67dc",
      "effectiveGasPrice": "0x1e976a",
      "from": "0xe911f518449ba0011d84b047b4cde50daa081ec1",
      "to": "0x049a72032a08409712268aae1bd6f0a118bdf734",
      "contractAddress": null,
      "l1BaseFeeScalar": "0x8dd",
      "l1BlobBaseFee": "0x1a0f8aa9e8",
      "l1BlobBaseFeeScalar": "0x101c12",
      "l1Fee": "0xac0b9c5a3d3",
      "l1GasPrice": "0x5e23242d",
      "l1GasUsed": "0x640"
    },
    {
      "status": "0x1",
      "cumulativeGasUsed": "0x718cff2",
      "logs": [
        {
          "address": "0x6c91f056443249a1c3bbd9da2e5160fece9480c0",
          "topics": [
            "0x14b2b80e0d62303dc85494859f35a84579160aafbd650180ddf526b1ab547bd6",
            "0x60957c44c4a570e88c72fcc7c379b4ab86bf1f54748f9e63e95909aef97a9860"
          ],
          "data": "0x00000000000000000000000000000000000000000000000000000000000001c2",
          "blockHash": "0x5b38f21da0b4f7c2ace0550ee0aa8b66455603913ecb21f53a8e37455ab8ab07",
          "blockNumber": "0x1bf147a",
          "transactionHash": "0x80b7cd4e057dd99e975510de550fde60ed2cb06546630f6eeccc00d3185961ee",
          "transactionIndex": "0x4b",
          "logIndex": "0x1a3",
          "removed": false
        }
      ],
      "logsBloom": "0x00000000000000000000000000000000000000000000000000000000000000000040000000000000000000000000000000000000100000002000000000000000000000000000000000000000000000000000000000000000000000000000000000000000000000000000000000000000000000000000000000000000000000000000000000000000000000000000000000000000400000000000008000000000400000000000000000000000000000000000000000000000000002000000000000000000000000000000000000000000000000000000000000000000000000000000000000000000000002000000000000000004000000000000000000000000",
      "type": "0x0",
      "transactionHash": "0x80b7cd4e057dd99e975510de550fde60ed2cb06546630f6eeccc00d3185961ee",
      "transactionIndex": "0x4b",
      "blockHash": "0x5b38f21da0b4f7c2ace0550ee0aa8b66455603913ecb21f53a8e37455ab8ab07",
      "blockNumber": "0x1bf147a",
      "gasUsed": "0x925a",
      "effectiveGasPrice": "0x1e976a",
      "from": "0xe911f518449ba0011d84b047b4cde50daa081ec1",
      "to": "0x6c91f056443249a1c3bbd9da2e5160fece9480c0",
      "contractAddress": null,
      "l1BaseFeeScalar": "0x8dd",
      "l1BlobBaseFee": "0x1d517c05bf",
      "l1BlobBaseFeeScalar": "0x101c12",
      "l1Fee": "0xe2cda5974db",
      "l1GasPrice": "0x5f1df999",
      "l1GasUsed": "0x752"
    },
    {
      "status": "0x1",
      "cumulativeGasUsed": "0x6fbcb59",
      "logs": [],
      "logsBloom": "0x00000000000000000000000000000000000000000000000000000000000000000000000000000000000000000000000000000000000000000000000000000000000000000000000000000000000000000000000000000000000000000000000000000000000000000000000000000000000000000000000000000000000000000000000000000000000000000000000000000000000000000000000000000000000000000000000000000000000000000000000000000000000000000000000000000000000000000000000000000000000000000000000000000000000000000000000000000000000000000000000000000000000000000000000000000000",
      "type": "0x0",
      "transactionHash": "0x20919f6f38011802b17300472d995024d5a1cbe2107a7aeb2e95b2a21955ba22",
      "transactionIndex": "0x60",
      "blockHash": "0xfb4f314a00a5934baea3a1188bd0fa2f9f45ae88a99c3403b258923ccdadac3f",
      "blockNumber": "0x1bf147f",
      "gasUsed": "0x22f08",
      "effectiveGasPrice": "0x1e976a",
      "from": "0xe911f518449ba0011d84b047b4cde50daa081ec1",
      "to": "0xe0c4b7b6b12852d1489718a34ea0f2351d3fbc13",
      "contractAddress": null,
      "l1BaseFeeScalar": "0x8dd",
      "l1BlobBaseFee": "0x1fb6961ce7",
      "l1BlobBaseFeeScalar": "0x101c12",
      "l1Fee": "0x1425ec4d4af7",
      "l1GasPrice": "0x5cb5e9a5",
      "l1GasUsed": "0x99f"
    }
  ],
  "libraries": [],
  "pending": [],
  "returns": {},
  "timestamp": 1745389026,
  "chain": 8453,
  "commit": "72862e5"
}